:100000000C945E000C948A000C948A000C948A0074
:100010000C948A000C948A000C948A000C948A0335
:100020000C948A000C948A000C948A000C948A0028
:100030000C948A000C948A000C948A000C948A0018
:100040000C948A000C948A000C948A000C948A0008
:100050000C948A000C948A000C948A000C948A00F8
:100060000C948A000C948A000C948A000C948A00E8
:100070000C948A000C948A000C948A000C948A00D8
:100080000C948A000C948A000C948A000C948A00C8
:100090000C948A000C948A000C948A000C948A00B8
:1000A0000C948A000C948A000C948A00BF00C10052
:1000B000C400C600C800CB00CF00D10011241FBE71
:1000C000CFEFDAE0DEBFCDBF84B78093CB0114BEA3
:1000D0000FB6F894A89580916000886180936000C5
:1000E000109260000FBE11E0A0E0B1E0E4E9F6E19B
:1000F00002C005900D92AA32B107D9F721E0AAE219
:10010000B1E001C01D92AB3CB207E1F70E94CC0305
:100110000C94480B0C9400002FEF81EE94E02150DA
:1001200080409040E1F700C00000469A2FE78FE43E
:1001300092E1215080409040E1F700C000004698D5
:1001400008952FEF81EE94E0215080409040E1F738
:1001500000C00000469A2FEF81EE94E021508040CD
:100160009040E1F700C000004698089590E0883084
:100170009105D0F4FC01EA5AFF4F0C94420B5C9AB3
:1001800001C05C985E980FC05C9806C05C9A01C084
:100190005C985E9802C05C9A5E9A5F9805C05C9815
:1001A00001C05C9A5E9A5F9A82E08A95F1F700C07E
:1001B0000895FF920F931F93CF93DF93479A109266
:1001C000CA01C0E0D0E001E010E08C2F0E94B60030
:1001D000469A6AE080E50E94CE0A882319F00E94C0
:1001E0008C002AC0469880E00E94090B81E50E949D
:1001F000FF0A0E94240BF82E0E94010B20EAF21243
:10020000EECF6AE080E50E94CE0A8111E8CF8FE34D
:100210000E94090B80E20E94090B0E94010B2091B1
:10022000CA01C8010C2E01C0880F0A94EAF7822B7C
:100230008093CA010E94A1002196C630D10529F6FB
:100240008FE79FE422E1815090402040E1F700C019
:100250000000C0E0D0E08091CA0190E00C2E02C006
:10026000959587950A94E2F780FF34C08C2F0E9401
:10027000B600CE010197059710F580E50E94A70A08
:1002800081E40E94090B81E20E94090B0E94010B8C
:100290008FE19EE40197F1F700C0000080E50E9425
:1002A000A70A82E40E94090B84E00E94090B0E94C5
:1002B000010B8FE19EE40197F1F700C0000080E59B
:1002C0000E94A70A8DE30E94090B8CE00E94090B93
:1002D0000E94010B2196C630D10509F0BCCF9FEFDB
:1002E00020E732E0915020403040E1F700C00000AC
:1002F0004798DF91CF911F910F91FF9008950F9331
:100300001F93CF93DF93CDB7DEB728970FB6F8943E
:10031000DEBF0FBECDBF2091CA0130E0082E02C063
:10032000359527950A94E2F720FF6EC08B010E9455
:10033000B60080E50E94A70A80E20E94090B81E5D1
:100340000E94FF0A0E941A0B89830E941A0B8A835B
:1003500089819A8197FF34C00E941A0B8B830E9477
:100360001A0B8C830E941A0B8D830E941A0B8E83AA
:100370000E941A0B8F830E94240B88870E94010B16
:100380004B815C815195419551095C834B832D8153
:100390003E813195219531093E832D838F8198854A
:1003A00091958195910998878F83F80140839C816D
:1003B000918322839E81938384838885858324C04F
:1003C0000E941A0BF80180830E941A0BF8018183A6
:1003D0000E941A0BF80182830E941A0BF801838392
:1003E0000E941A0BF80184830E94240BF801858374
:1003F00028960FB6F894DEBF0FBECDBFDF91CF9128
:100400001F910F910C94010B28960FB6F894DEBF44
:100410000FBECDBFDF91CF911F910F910895EF9245
:10042000FF920F931F93CF93DF93CDB7DEB728973B
:100430000FB6F894DEBF0FBECDBF2091CA0130E0E9
:10044000082E02C0359527950A94E2F720FFA1C037
:100450008A017B010E94B60080E50E94A70A80E223
:100460000E94090B81E50E94FF0A0E941A0B8983F2
:100470000E941A0B8A8389819A8197FF4CC00E943F
:100480001A0B8B830E941A0B8C830E941A0B8D838C
:100490000E941A0B8E830E941A0B8F830E941A0BE4
:1004A00088870E941A0BF80180830E941A0BF801BA
:1004B00081830E941A0BF80182830E941A0BF801B3
:1004C00083830E941A0BF80184830E94240BF80195
:1004D00085830E94010B4B815C81519541955109A7
:1004E0005C834B832D813E813195219531093E837B
:1004F0002D838F81988591958195910998878F8318
:10050000F70140839C81918322839E81938384831E
:10051000888585833EC00E941A0BF70180830E9464
:100520001A0BF70181830E941A0BF70182830E9444
:100530001A0BF70183830E941A0BF70184830E9430
:10054000240BF70185830E941A0BF80180830E9417
:100550001A0BF80181830E941A0BF80182830E9412
:100560001A0BF80183830E941A0BF80184830E94FE
:10057000240BF801858328960FB6F894DEBF0FBED2
:10058000CDBFDF91CF911F910F91FF90EF900C9411
:10059000010B28960FB6F894DEBF0FBECDBFDF91DA
:1005A000CF911F910F91FF90EF900895CF93DF931C
:1005B0002091CA0130E0082E02C0359527950A9493
:1005C000E2F720FF13C0EB010E94B60080E50E9415
:1005D000A70A85E30E94090B81E50E94FF0A0E9499
:1005E000240B8883DF91CF910C94010BDF91CF9185
:1005F0000895EAE6F1E04BEA40833DEC318350E1B7
:10060000659FB0011124262F2160228350E2859F2F
:10061000C0011124982F91609383EAE4F1E02083D4
:10062000982F92609183EAE2F1E0208383608183D6
:10063000EAE8F1E0408331838FEF8283838369604E
:1006400064830895EAE6F1E0938184E0890F8C7079
:10065000937F982B9383EAE4F1E09181937F982B29
:100660009183EAE2F1E09181937F892B8183089560
:1006700091E0823008F090E0892F089590E080E8C2
:100680000FB6F89480936100909361000FBE519A69
:1006900050983E9A3F9A549A569A579A86E090E01C
:1006A0004698479A2FEF30E742E0215030404040D3
:1006B000E1F700C00000469A47982FEF30E742E08C
:1006C000215030404040E1F700C00000019741F761
:1006D000469847988FEF90E722E081509040204065
:1006E000E1F700C00000089583E390E09093CD000F
:1006F0008093CC00E8ECF0E080818D7F8083EAEC91
:10070000F0E0808186608083E9ECF0E080818861A0
:10071000808308951F920F920FB60F9211242F938A
:100720003F934F935F936F937F938F939F93AF9379
:10073000BF93EF93FF93CF93DF9300D0CDB7DEB796
:10074000F8940E942007AE014F5F5F4FBE016E5FBD
:100750007F4F8AEA91E00E947C0787EC90E0019746
:10076000F1F700C0000060E487E00E94BB070F9033
:100770000F90DF91CF91FF91EF91BF91AF919F913A
:100780008F917F916F915F914F913F912F910F903A
:100790000FBE0F901F901895CF93DF9300D000D01D
:1007A0001F92CDB7DEB7F8940E943E030E947F0AE5
:1007B0000E9474030E945F0A21E045E061E089E63F
:1007C0000E94AD0820E040E061E080E291E00E94FC
:1007D0006C0982E00E94F70881E00E94F7080E94FD
:1007E000D9000E94080841E061E081E00E94E20730
:1007F0001D828091010160E070E090E00E94F902AA
:100800008091810082608093810010928500109217
:100810008400469A479A2FEF31EE44E02150304051
:100820004040E1F700C000000E9416070E94040843
:1008300043E063E071E080E00E94AC090E941A0787
:1008400063E084EF91E00E9464088BE291E00197FD
:10085000F1F700C0000011E01D82AE014F5F5F4F55
:10086000BE016E5F7F4FCE0103960E94E40688238F
:1008700099F30E9404088B81882331F1112321F11F
:100880000E945A07882359F0AE014C5F5F4FBE01AA
:100890006B5F7F4F8AEA91E00E947C07F1CF8091E5
:1008A000AA01809300018091AB01809301018091A6
:1008B000AC01809302018091AD01809303011092FD
:1008C00085001092840010E08A818823D9F00E946C
:1008D00020076091020170E08091010190E00E9488
:1008E000F902F090020147989FEF24E33CE0915019
:1008F00020403040E1F700C0000080E090E00F2D84
:1009000010E011C08091840090918500893E934051
:1009100008F4A2CF11119FCF43E063E071E080E0C3
:100920000E94AC0998CF08171907B4F0479A2FEF27
:1009300031EE44E0215030404040E1F700C000007B
:1009400047982FEF31EE44E0215030404040E1F72E
:1009500000C000000196E7CF469820E041E065E244
:1009600071E081E00E944709F092290120E041E016
:1009700065E271E082E00E9447090E9416070E942A
:100980001A07A89599E288E10FB6F894A895809384
:1009900060000FBE909360000E9416070E9404083A
:1009A000479AAE014F5F5F4FBE016E5F7F4FCE0132
:1009B00003960E94E4068823A1F38B81811103C072
:1009C0000E940408EECFAE014C5F5F4FBE016B5F2B
:1009D0007F4F8AEA91E00E947C078C81823081F708
:1009E00047980FB6F894A89580916000886180932D
:1009F0006000109260000FBE61E084EF91E00E9401
:100A00006408F12C82E0D82E95E0C92EF1105BC06D
:100A100080910001813061F480910101813019F4ED
:100A20000E94B20950C081114EC00E94F0094BC013
:100A300081113CC080910101833039F446E060E0CF
:100A400071E082E00E94AC093EC08530E1F5469A33
:100A50008FEF91EE24E0815090402040E1F700C0FC
:100A6000000080E090E0479A3FEF41EE24E03150F3
:100A700040402040E1F700C0000047983FEF41EEC2
:100A800024E0315040402040E1F700C000000196D2
:100A90000817190744F746983FEF49E688E13150B7
:100AA00040408040E1F700C000000DC0823059F4A2
:100AB00080910101811103C00E941E0A04C081308F
:100AC00011F40E94490A0E9422031092850010929C
:100AD000840080918400909185008031974208F0D5
:100AE00095CF1D82AE014F5F5F4FBE016E5F7F4F9E
:100AF000CE0103960E94E406882309F454C10E94A3
:100B000004088B81882309F44EC10E945A07882368
:100B100009F449C1AE014C5F5F4FBE016B5F7F4F6F
:100B20008AEA91E00E947C078C81823009F0B5C08E
:100B30008D81823008F4A4C08091AA0181115DC02A
:100B40008091AB01882309F49BC0813019F4109285
:100B5000000182C0823061F4A8959FE088E10FB661
:100B6000F894A895809360000FBE90936000FFCF2B
:100B7000833049F446E060E071E082E00E94AC0915
:100B8000FF24F3947FC0853009F07AC08091010181
:100B9000853071F1469A9FEF21EE34E0915020406C
:100BA0003040E1F700C0000080E090E0479A4FEF4E
:100BB00021EE34E0415020403040E1F700C0000019
:100BC00047984FEF21EE34E0415020403040E1F7AC
:100BD00000C0000001960817190744F746984FEF28
:100BE00089E698E1415080409040E1F700C0000064
:100BF00010920001C092010143C08130B1F4809392
:100C00000001E090AB0180910101E816C9F1AE2C22
:100C1000B12CC5010E943803892B91F1E0920101AA
:100C2000B801C5010E94F9022BC08230C1F4809145
:100C3000AB01823028F590910101891749F08111AB
:100C400003C00E941E0A04C0813011F40E94490AA8
:100C5000D09200018091AB018093010111C08330DB
:100C600079F48091AB01811105C08091AC01809332
:100C7000030106C0813021F48091AC01809304010E
:100C8000FF2049F08091AA01811105C08091AB013C
:100C9000833009F43ACFF12C38CF813009F035CFC9
:100CA0008091AA01811142C08091AB01823061F430
:100CB000A8959FE088E10FB6F894A895809360000E
:100CC0000FBE90936000FFCF853009F01ECF469A8B
:100CD0002FEF31EE44E0215030404040E1F700C0BA
:100CE000000080E090E0479A2FEF31EE44E0215081
:100CF00030404040E1F700C0000047982FEF31EE50
:100D000044E0215030404040E1F700C0000001962F
:100D10000817190744F746988FEF99E628E18150A4
:100D200090402040E1F700C00000EFCE823011F586
:100D30008091AB0181110EC00E941E0A469A3FEFBE
:100D400044E38CE0315040408040E1F700C00000B7
:100D50004698DBCE813009F0D8CE0E94490A479AE6
:100D60009FEF24E33CE0915020403040E1F700C089
:100D7000000017C0833009F0C8CE8091AB0181110B
:100D8000C4CE8091AC0180930301469A479A4FEFFD
:100D900084E39CE0415080409040E1F700C00000B7
:100DA00046984798B2CE8FEC97E00197F1F700C0D4
:100DB00000008FCE28988FEF0E94790A289A92E03F
:100DC0009A95F1F700C00895EF92FF920F931F9349
:100DD000CF93DF937C018B01EA010E94DA06982F02
:100DE0009074F7019083982F9072F8019083982F58
:100DF000907198838077DF91CF911F910F91FF9031
:100E0000EF900895289882EE0E94790A289A82E04D
:100E10008A95F1F700C00895289881EE0E94790A1A
:100E2000289A82E08A95F1F700C008950E9402078F
:100E30000C940C072D9A8AE18A95F1F700C0089569
:100E40002D9808950E94DA068695877008950F936D
:100E50001F93CF938C01C62F289880E30E94790AB4
:100E6000CC2349F0F801EC0FF11D319780810E94ED
:100E7000790AC150F5CF289A82E08A95F1F700C02F
:100E8000CF911F910F91089528980E94790A8FEFB2
:100E90000E94790A289A92E09A95F1F700C0089585
:100EA00080E00E9444078270089587E10E94440711
:100EB0008170089587E10E944407809581700895AC
:100EC000863018F48F5E0C94440780E0089580E625
:100ED0000C944407CF93863060F4C82F8CE10E94B5
:100EE000440721E030E001C0220FCA95EAF78223CF
:100EF00001C080E0CF910895EF92FF920F931F936E
:100F0000CF93DF93F82EE92EEB018A010E9455075B
:100F1000882321F01882F801108226C00E9422073F
:100F2000F80180830E946A07882319F00E946707EE
:100F300004C0F80180810E94600788832898188186
:100F400081E60E94790A0F2DCF2DDE2D8C2F801B7C
:100F5000811728F480E00E94790A8993F7CF289AB4
:100F6000F2E0FA95F1F700C0DF91CF911F910F9158
:100F7000FF90EF900895CF93C62F289892E09A950E
:100F8000F1F700C0805E0E94790A8C2F0E94790AD6
:100F9000289A82E08A95F1F700C0CF9108950E94C7
:100FA000500781110EC02D980E944407682F62607F
:100FB00080E00E94BB078FE99FE00197F1F700C036
:100FC000000008951F93CF93DF93182FD62FC42FBF
:100FD00080E00E9444078F78111102C060E001C0D8
:100FE00060E4D11102C020E001C020E2C11102C0C2
:100FF00090E001C090E1682B622B692B80E0DF91CB
:10100000CF911F910C94BB0760E787E00C94BB075E
:101010002D9880E00E944407682F616080E00E9464
:10102000BB070C9404088E3708F08DE7682F85E025
:101030000C94BB07833028F0682F863018F065E0E9
:1010400001C063E0625083E00C94BB07CF93C82FCC
:1010500080E00E944407682F637FCC2329F0C130D1
:1010600011F4686001C06C6080E0CF910C94BB0704
:101070001F93CF93DF93EB01142F8230A8F42898AD
:10108000865D0E94790A112349F0FE01E10FF11DEE
:10109000319780810E94790A1150F5CF289A82E019
:1010A0008A95F1F700C00CC0863050F4C40FD11DF2
:1010B00021976881865FDF91CF911F910C94BB07C8
:1010C000DF91CF911F910895262F8A3F910538F027
:1010D000813A3FE0930728F080EA9FE002C08AEF60
:1010E00090E06AEF70E00E942E0B615030E1639F48
:1010F000C0011124622F203108F06FE0682B84E0DA
:101100000C94BB07863030F4613208F060E28F5EE9
:101110000C94BB070895CF93C82F86E00E94440724
:10112000682F677DC11102C0606203C0C13009F041
:10113000686086E0CF910C94BB07CF93C82F86E000
:101140000E9444076C2FC43008F063E0660F897F6B
:10115000682B86E0CF910C94BB070F931F93CF931E
:10116000DF93082F162FD42FC22F0E94CF07802F76
:101170000E941308812F0E948B0883E00E949D0823
:101180008D2F0E941A088C2F0E9426086FE084EF92
:1011900091E0DF91CF911F910F910C946408CF9350
:1011A000863078F4C82F81E00E94440761E070E047
:1011B00001C0660FCA95EAF7682B81E0CF910C94C5
:1011C000BB07CF910895CF93863078F4C82F82E083
:1011D0000E94440761E070E001C0660FCA95EAF71B
:1011E000682B82E0CF910C94BB07CF910895CF93E9
:1011F000863080F4C82F82E00E94440761E070E0EE
:1012000001C0660FCA95EAF76095682382E0CF9126
:101210000C94BB07CF9108958DE10E944407682F7D
:1012200064608DE10C94BB07CF938630A0F4C82F87
:101230000E940C098C2F0E94CF088CE10E94440769
:1012400061E070E001C0660FCA95EAF7682B8CE197
:10125000CF910C94BB07CF9108950E940C098DE1AA
:101260000E944407682F62608DE10C94BB078DE1FA
:101270000E944407682F6D7F8DE10C94BB078DE1C0
:101280000E944407682F61608DE10C94BB071F9397
:10129000CF93DF93C82F142FD22F45E00E94380838
:1012A0008C2F0E94E30860E28C2F0E9482088C2F12
:1012B0000E941409112319F00E942D0902C00E94F6
:1012C0003709DD2329F0DF91CF911F910C943F095D
:1012D000DF91CF911F910895FF920F931F93CF93AA
:1012E000DF93EC01062FF42E122F65E00E942707F2
:1012F0002F2D402FBE01812FDF91CF911F910F9194
:10130000FF900C9447090F931F93CF93DF93EC0149
:101310008C01060F111DC017D10721F089910E9481
:10132000790AF9CFDF91CF911F910F9108951F9303
:10133000CF93DF93EB01142F28980E94790A612F35
:10134000CE010E948309289A82E08A95F1F700C0B5
:10135000DF91CF911F910895863018F488550C9431
:101360009709089544E751E06EE671E080E00E943D
:101370000F0240E851E06AE771E081E00E940F024D
:101380000E9402074CE16AE671E082E00E94AC092B
:1013900042E551E06CE471E082E00E940F024EE50C
:1013A00051E068E571E083E00E940F024AE16AE4DF
:1013B00071E082E00E94AC0942E351E06CE271E02E
:1013C00084E00E940F024EE351E068E371E085E0A3
:1013D0000E940F024AE16AE271E082E00C94AC09DB
:1013E0006EE671E080E00E947F0164E771E081E0D9
:1013F0000E947F016AE771E082E00E947F010E9403
:10140000020746E16AE671E082E00E94AC096CE402
:1014100071E083E00E947F0162E571E084E00E9458
:101420007F0168E571E085E00E947F010E9402076C
:1014300044E16AE471E082E00C94AC09EAE8F1E08E
:1014400082E08583168261E971E080E00E94D60225
:1014500062E971E081E00E94D60263E971E082E016
:101460000E94D60264E971E083E00E94D60265E939
:1014700071E084E00E94D60266E971E085E00E9496
:10148000D6020E9402074DE06AE871E082E00C9407
:10149000AC0982E080938F0181E080939001E0E0CD
:1014A000F1E0A1E9B1E081918D9381E0E630F807A8
:1014B000D1F74DE06AE871E082E00C94AC09259A1E
:1014C000209A229A219A23988CB580658CBD8CB580
:1014D00081608CBD8CB58D7F8CBD8DB581608DBDDF
:1014E000289A2D988FE19EE40197F1F700C0000043
:1014F00008958EBD0DB407FEFDCF8EB508951092F0
:10150000B9008CE08093B800089594EA9093BC00F1
:101510009091BC0097FFFCCF9091B900987F9830D4
:1015200021F0903111F081E008958093BB0084E8B0
:101530008093BC008091BC0087FFFCCF8091B900F4
:10154000887F883111F0803471F780E0089524EAB3
:1015500034E844E92093BC009091BC0097FFFCCF95
:101560009091B900987F983011F0903199F780935D
:10157000BB003093BC009091BC0097FFFCCF9091D2
:10158000B900987F903211F0983539F44093BC003F
:101590009091BC0094FDFCCFDDCF089590E034EA3B
:1015A00044E854E99F5F3093BC002091BC0027FFC2
:1015B000FCCF2091B900287F283029F0203119F084
:1015C000691780F70FC08093BB004093BC00209147
:1015D000BC0027FFFCCF2091B900287F203239F0D2
:1015E000283529F081E0691748F080E0089550938C
:1015F000BC002091BC0024FDFCCFE2CF08950C94E8
:10160000850A84E98093BC008091BC0084FDFCCFF6
:1016100008958093BB0084E88093BC008091BC0057
:1016200087FFFCCF9091B900987F81E0983209F450
:1016300080E0089584EC8093BC008091BC0087FF1B
:10164000FCCF8091BB00089584E88093BC0080911A
:10165000BC0087FFFCCF8091BB000895AA1BBB1B79
:1016600051E107C0AA1FBB1FA617B70710F0A61BA2
:10167000B70B881F991F5A95A9F780959095BC01C3
:10168000CD010895EE0FFF1F0590F491E02D099410
:04169000F894FFCFFC
:1016940070BA5E0001AA0000000000000000000013
:1016A4000000000000000000000000000000000036
:0A16B400BA5ECA573DBA5EDA7AFF4B
:00000001FF
